:020000040800F2
:10000000500700204902000839150008F1140008C3
:10001000351500080D1400080F1D00080000000031
:10002000000000000000000000000000A918000807
:100030001114000800000000C9150008851A000806
:1000400063020008630200086302000863020008FC
:1000500063020008630200086302000863020008EC
:1000600063020008630200086302000863020008DC
:1000700063020008630200086302000863020008CC
:1000800063020008630200086302000863020008BC
:1000900063020008630200086302000863020008AC
:1000A000630200086302000863020008630200089C
:1000B000630200086302000863020008630200088C
:1000C000630200086302000863020008630200087C
:1000D00063020008F11A00086302000863020008C6
:1000E000630200086302000863020008630200085C
:1000F000630200086302000863020008630200084C
:10010000630200086302000863020008630200083B
:10011000630200086302000863020008630200082B
:10012000630200086302000863020008630200081B
:10013000630200086302000863020008630200080B
:1001400063020008630200086302000863020008FB
:1001500063020008630200086302000863020008EB
:1001600063020008630200086302000863020008DB
:1001700063020008630200086302000863020008CB
:10018000630200086302000800F002F800F04CF877
:100190000AA090E8000C82448344AAF10107DA45E2
:1001A00001D100F041F8AFF2090EBAE80F0013F0E8
:1001B000010F18BFFB1A43F001031847E82A00009B
:1001C000082B0000103A24BF78C878C1FAD852072B
:1001D00024BF30C830C144BF04680C6070470000C1
:1001E0000023002400250026103A28BF78C1FBD840
:1001F000520728BF30C148BF0B607047662902F024
:100200000485642900F04E80002070471FB502F07D
:10021000F2FC00F089FB04000020002102F006F847
:10022000E0601FBD10B510BD00F09AFC1146FFF74D
:10023000EDFF01F089FE00F0B8FC03B4FFF7F2FF18
:1002400003BC01F085FD00000948804709480047CC
:10025000FEE7FEE7FEE7FEE7FEE7FEE7FEE7FEE776
:10026000FEE7FEE704480549054A064B70470000D3
:10027000891A000889010008500100205007002059
:100280005003002050030020704700000FB40449C1
:1002900010B503AA029800F035FB10BC5DF814FB02
:1002A0000C0000202DE9F041064600241068752955
:1002B000314616A510D0AFF30080002802DA404284
:1002C00013A507E031688A0701D512A502E04907A6
:1002D00004D511A5012401E0AFF3008000210A221A
:1002E00006F1240709E0B0FBF2FCB0FBF2F302FBDD
:1002F0001C00303078541846491C0028F3D123469E
:100300002A463046BDE8F04100F093B800000000F6
:100310002D0000002B000000200000002DE9F04718
:100320004FF0000A89460446C0F820A02046E16844
:100330008847002876D0252806D0D4E901219047A7
:10034000206A401C2062F1E7E168204600258847CA
:10035000C4F81CA006460027C4F818A02A2E09D00D
:10036000304601F0EEFC38B304EB8708303EC8F8A5
:10037000186019E059F8041B204604EB87029161CC
:10038000E1688847012F064618D1E069002820DA85
:1003900025F020051DE0D8F8180000EB800006EBE2
:1003A00040003038C8F818002046E1688847064603
:1003B00001F0C7FC0028EED1012F0AD02E2E08D163
:1003C0002046E16888477F1C0646022F45F020053D
:1003D000C4DBA069002803DA404245F00105A061B2
:1003E000E80701D025F01005B6B1A6F141001928A3
:1003F00002D8203645F400654A463146204625603D
:100400004D46FFF7FBFE58B1012806D0ED1D25F043
:10041000070000F1080989E704E005F1040985E710
:1004200030468AE7206ABDE8F0877047704770471A
:1004300070472DE9F0470D4699469246044600F173
:1004400024080168880604D5E06921F010012160C4
:1004500000E00120A84201DD471B00E00027A16960
:100460007A1902EB0900081AA0612078C00602D4AC
:100470002046AFF30080002608E0D4E901211AF8F5
:1004800006009047206A401C761C20624E45F4DB33
:100490002078C0060AD52046AFF3008006E0D4E9F4
:1004A000012130209047206A401C2062381EA7F1AD
:1004B0000107F4DC07E0D4E9012118F805009047B2
:1004C000206A401C2062281EA5F10105F3DC2046AD
:1004D000AFF300802078000602D50220BDE8F08747
:1004E0000120FBE770472DE9FF4F0C461E464FF0F9
:1004F000FF378BB0D2E90001DDF860800A908A46B0
:10050000C1F30A5505B93D46002108464FF00000E9
:10051000BAF1000F00F4400005DA00EB80004FF460
:10052000400101EA50004FEA9059B9F1010F00DD96
:10053000B9460A9850EA4A000ED044F61050A5F287
:10054000FF3545432F14B8F1000F1ED07542291E08
:100550001EDDC9F100021CE0B8F1010F4FF00000F0
:1005600001D0302103E0F24305E02154401CB042A9
:10057000FBDB30460022002121540B99C1F8088092
:10058000C1E900200FB0BDE8F08FBD1B6D1CDEE798
:100590004A4600DA694206A800F068FA06AB93E81A
:1005A000070003AB83E8070050460A9900F046FBBA
:1005B0008DE80700A0F500501F3800900398002D2B
:1005C0000ADD42F21F014A460844002303A90390B2
:1005D000684600F0AFFD09E0A0F500504A461F381C
:1005E000002303A90390684600F0B9FD8DE80700D9
:1005F0000004000C03D04FF0FF30410800E010462B
:10060000B8F1000F03D00022009215461EE0751EBF
:1006100005D400F08DF9303262556D1EF9D5B34620
:100620000122084302D000227F1C04E020783028F9
:1006300001D100227F1E002A099784D01DE0112DD0
:1006400007DA00F075F9303262556D1C50EA01028C
:10065000F5D1084302D00098C8B10EE00021681E11
:1006600005E0235C625C63542254401E491C8142B5
:10067000F7DBAB46A81B401E0990002004F80B00D6
:100680000B98099AC0F80880C0E9002B7AE7112678
:100690004FF0000857E72DE9F04F88460446D21D79
:1006A00022F0070191B0D1E90001CDE90A0101F082
:1006B00030FB02460B98C00F01D02D2007E02068C8
:1006C000810701D52B2002E0202101EAC000032A86
:1006D000099001D0072A05DB03464146204600F079
:1006E00085F90BE12078800601D5E06900E006205D
:1006F000B8F1650F814606D0B8F1660F18D0B8F191
:10070000670F70D131E00020B9F1110F009001DBCB
:10071000112301E009F101030AAA01A90CA8FFF7BE
:10072000E2FEDDE90C70002609F10105834647E091
:1007300001204B4600904FF000470AAA01A90CA8DF
:10074000FFF7D1FEDDE90DB00C995D46002610B92A
:1007500009F101000D18B9EB050003D4C0F1FF3613
:1007600009F10105A5EB09002BE0B9F1010F01DA50
:100770004FF001090020B9F1110F0090484601DD4A
:10078000112300E003460AAA01A90CA8FFF7ABFE5B
:10079000DDE90C704D4600268346207800070AD418
:1007A000AB4500DA5D4601A8012D04DD411911F8C1
:1007B000011C302907D04F4502DA17F1040F04DA83
:1007C000012082460FE06D1EEEE7002F02DCED1BDC
:1007D0003E4403E0781CA84200DD7D1CB81B00F1FC
:1007E000010A4FF000472078000703D4AA4501DB37
:1007F0004FF0FF3A0021B7F1004F0DF143088DF89B
:10080000431024D002202B23002F01DA7F422D2316
:100810000A21021EA0F1010000DC5FB197FBF1FC90
:1008200097FBF1F201FB1C7C17460CF1300C08F829
:1008300001CDEEE7A8F1010003702188090501D57B
:10084000452100E06521A0F1010800F8011C09988C
:100850000FA9A1EB0807FF1D00B10120411901EB11
:10086000EA70A1693844081A401EA0612078C006C9
:1008700002D42046AFF30080099828B1D4E90121C1
:100880009047206A401C20622078C00622D520466E
:10089000AFF300801EE0002E04DBB34502DD01A8AB
:1008A000805D00E03020D4E901219047206A401C9F
:1008B0002062761CAAF101005FEA000A0AD100F06A
:1008C00033F8C0680168405CD4E901219047206A90
:1008D000401C2062281EA5F10105DCDC07E0D4E9FC
:1008E000012118F8010B9047206A401C2062381E35
:1008F000A7F10107F3DC2046AFF30080032011B01D
:1009000041E60000074B70B50D467B4400F05BF8F4
:100910000446284600F01CF910B14FF0FF3070BDBE
:10092000204670BD1F160000004870470C010020D3
:1009300030B5B0F10A024FEA900E71F100034EEAB1
:10094000817EB0EB0E0061EB91014FEA101E4EEA82
:10095000017E10EB0E0041EB11114FEA102E4EEA12
:10096000016E10EB0E0041EB11214FEA104E4EEAE2
:10097000014E10EB0E0041EB1141401841F1000116
:100980004FEAD00040EA41704FEAD10110EB8005F8
:100990004FEA810444EA907444EB01046D1944EB7E
:1009A0000404521BA3414FF0000348BF0A3200D594
:1009B00030BD401C41F1000130BD000001694A1CFE
:1009C00002610878704700B58FB0CDE90131002190
:1009D000059105497944CDE9031011466846FFF7B2
:1009E0009DFC0FB000BD0000E5FFFFFF2DE9F041C9
:1009F0001F46044603260168072A01F4006004DB51
:100A000008B116A505E016A503E008B115A500E09C
:100A100015A521F010002060A069C01EA0610FB1D3
:100A2000401EA0612046AFF300804FB1D4E9012100
:100A300038469047206A401C2062C01C206206E0B5
:100A4000206AFAE7D4E9012115F8010B9047761ED8
:100A5000F8D22046AFF30080BDE8F0814E414E0051
:100A60006E616E00494E4600696E66002DE9F047E2
:100A7000814616468AB0354878440DC88DE80D0089
:100A800032487844801C03AC0DC884E80D0041F660
:100A90009B300844372190FBF1F290FBF1F5A5F172
:100AA000800501FB12041B3C02D56442012000E0DA
:100AB0000020DFF898A080460027FA44AAF1BE0A79
:100AC0000EE0E0070AD03246684607EB47010123F3
:100AD0000AEB810100F043FB8DE8070064107F1CE6
:100AE000002CEED1194F7F44AE3F19E0E80715D036
:100AF00007EB04100DF1180A90E80E008AE80E00CA
:100B0000C068F04201D1981908903246012306A925
:100B100003A800F024FB03AB83E807006D10641CFE
:100B2000002DE3D14FF0010332466946B8F1000FC2
:100B300003A802D000F0FEFA01E000F010FBC9E9C2
:100B40000001C9F808200AB0BDE8F08710220000B3
:100B5000007B00F08000704700487047EC000020E8
:100B60007546FFF7F9FFAE4605006946534620F08B
:100B70000700854618B020B5FFF774FBBDE820409C
:100B80004FF000064FF000074FF000084FF0000B49
:100B900021F00701AC46ACE8C009ACE8C009ACE8FC
:100BA000C009ACE8C0098D46704710B50446AFF3E4
:100BB00000802046BDE81040FFF73FBB4FF0013CEE
:100BC00050F8042B51F8043B9A4221D1A2EB0C03BC
:100BD000934313EACC1317D150F8042B51F8043B7C
:100BE0009A4215D1A2EB0C03934313EACC130BD119
:100BF00050F8042B51F8043B9A4209D1A2EB0C03A4
:100C0000934313EACC13DBD04FF00000704700BFD2
:100C1000D01A01BAB1FA81F101F0180122FA01F0FB
:100C2000CB40C1F12001DBB2C0B2C01A2CFA01F3F3
:100C3000D11A914311EAC311E6D170475FEA400C23
:100C400008BF91F0000F4FEA8C234FEAC12243EA1C
:100C500051514FEA1C5018BF00F5F0404FEA3000E8
:100C600018BF41F000415FEA6C5C00F02980BCF1E4
:100C7000FF3F08BF40F080407047130C06BF1204CE
:100C80004FF0100C4FF0000C130E04BF12020CF1C9
:100C9000080C130F04BF12010CF1040C930F04BFD6
:100CA00092000CF1020CD30F04BF52000CF1010CA6
:100CB00011464FF00002A0F11F00A0EB0C0070479E
:100CC00011F0004F08BF704731F000413FF4D5AF3D
:100CD0000B0C06BF09044FF0100C4FF0000C0B0E6C
:100CE00004BF09020CF1080C0B0F04BF09010CF141
:100CF000040C8B0F04BF89000CF1020CCB0F04BF56
:100D000049000CF1010CCCF12003A0EB0C0022FAFD
:100D100003F302FA0CF241EA030100F1010070470B
:100D200020F07F4C80EA030023F07F47ACEB070301
:100D300003F57C5300F0004003F1FF032DE98049E7
:100D40004FEA154B09B44FEA144325EA0B4E24EA47
:100D500003480FF2042606EB132749083E785FEAA2
:100D6000320203FB0667C7F5000707FB06F64FEAEA
:100D700054374FEAD64606F1020607FB066CCCF163
:100D8000005C4FEA1C472CEA074C07FB06F40CFBFF
:100D900006F504EB15464FEA961634BF00204FF0D7
:100DA00000404FEAD13706FB07FC4FEA1C4C0CFB16
:100DB0000BF7D21B03FB0CF761EB07010CFB0EF7E3
:100DC000B0EB074072EB17420CFB08F734BFA2EB05
:100DD0000742B2EB074261EB17414FEA0C444FEA7E
:100DE000910706FB07FC4FEA1C4C0CFB0BF7B0EB22
:100DF000C74072EB573203FB0CF734BFA2EBC7427C
:100E0000B2EBC74261EB57310CFB0EF7B0EBC700FA
:100E100072EB57720CFB08F734BFA2EBC702B2EBC0
:100E2000C70261EB5771039F4FEA816141EA92115A
:100E300004EBCC044FEAD1374FEA826206FB07FC91
:100E400042EA90124FEA80604FEA1C4C0CFB0BF711
:100E5000D21B03FB0CF761EB07010CFB0EF7B0EBA9
:100E6000074072EB17420CFB08F734BFA2EB0742B6
:100E7000B2EB074261EB17414FEA8C554FEA9107FD
:100E800004EB9C2406FB07FC4FEA1C4C0CFB0BF705
:100E9000B0EBC74072EB573203FB0CF734BFA2EB49
:100EA000C742B2EBC74261EB57310CFB0EF7B0EB18
:100EB000C70072EB57720CFB08F734BFA2EBC702F6
:100EC000B2EBC70261EB577115EB4C254FEA81611C
:100ED00041EA92114FEA82624FEAD13742EA901218
:100EE00006FB07FC44F100044FEA80604FEA1C4C0B
:100EF0000CFB0BF7D21B03FB0CF761EB07010CFBA0
:100F00000EF7B0EB074072EB17420CFB08F734BF4B
:100F1000A2EB0742B2EB074261EB174115EB1C1540
:100F20004FEA813141EA92414FEA823242EA9042ED
:100F30004FEA80304FEA0C7644F1000448EA03435C
:100F40004EEA0B484FF0000EB2EB080C71EB0307B2
:100F500024BF624639464EEB0E0E4FF0000B0018D0
:100F6000524149414BEB0B0BB2EB080C71EB030701
:100F70007BF1000B24BF624639464EEB0E0E4FF05C
:100F8000000B0018524149414BEB0B0BB2EB080C24
:100F900071EB03077BF1000B24BF624639464EEB31
:100FA0000E0E51EA020718BF46F0010616EB0E7648
:100FB00055F1000254F1000103D5BDE88901BDE8F7
:100FC0000088BDE88901BDE80048B619524141EBEF
:100FD0000101A3F10103704780807F7E7D7C7B7AD5
:100FE0007978777676757473727171706F6E6E6DD5
:100FF0006C6C6B6A6A69686867666665646463637B
:1010000062616160605F5F5E5E5D5D5C5C5B5B5A00
:101010005A5959585857575656555555545453536D
:1010200052525251515050504F4F4F4E4E4D4D4DC8
:101030004C4C4C4B4B4B4A4A4A4949494848484713
:101040004747474646464545454444444443434351
:101050004342424242414141002B9C4630D47700FA
:101060002BD01CB54FEA370703B44FF010004FF0F8
:101070001001BAF1000F06D0BCF1000FDCBF40F048
:10108000080040F008014FF000000FBCBDE8104020
:101090000BF1010BBBF1010F08BF5FEA170722BF7D
:1010A00012F1010211F101014FF0004143F100037F
:1010B00000F0004043EA00007047F9D35708D0E73A
:1010C00046EA064613F1400F4FEA16461FDD13F1BC
:1010D000200FDFBF16430A46002120335B42BED0FB
:1010E000C3F1200746EA064602FA07F74FEA16461A
:1010F00046EA0706C3F1200722FA03F201FA07F7CE
:1011000021FA03F14FF0000342EA0702A7E746EA9B
:10111000020646EA06464FEA164646EA0106BCBF04
:1011200046EA0646360C4FF000034FF000024FF03F
:10113000000194E72DE9804C9A46934670B491E8FB
:10114000380007C831EA400C48BF34EA430C03D5E5
:10115000FFF7E6FDFFF780FFF0BCBDE8008C2DE94E
:10116000804C9A46934670B491E8380007C810F056
:10117000804F08BF13F0804F03D100F005F8FFF750
:101180006BFFF0BCBDE8008C20F07F4780EA0300D5
:1011900023F07F4C07EB0C03A3F57C5300F00040D9
:1011A000A3F1FE0392F0000F00F0B38095F0000F62
:1011B00000F077802DE901494FEA11404FEA1446CB
:1011C00021EA004800FB06FC24EA064708FB06F675
:1011D00007FB08F800FB07F718EB06484CEB164C2A
:1011E0004FEA124B18EB07484FEA15464CEB1740F5
:1011F00022EA0B4E0BFB06FC25EA06470EFB06F621
:1012000007FB0EFE0BFB07F71EEB064E4CEB164CD6
:101210004FF000061EEB074E4CEB174B18EB0B087C
:1012200040F1000018EB0E0B58EB000840F10000F5
:101230008F1A4FF000013CBFC943661B14BFB5EBCA
:10124000040C00213CBFC943F61B4FEA17444EEA89
:101250008E0E27EA04454FEA1C4704FB07622CEA7E
:10126000074C05FB07F70CFB05F604FB0CFC16EB23
:10127000074642EB174216EB0C4642EB1C421BEBB7
:10128000060658EB0202414146EA9E0601D5BDE83A
:101290000189B619524141EB0101A3F10103BDE8F7
:1012A00001894FEA14454FEA114724EA054621EA2D
:1012B000074C05FB07F406FB07F70CFB06F105FBE3
:1012C0000CFC11EB074144EB17444FEA124711EBBA
:1012D0000C4144EB1C4422EA074C05FB07F206FBD9
:1012E00007F70CFB06F605FB0CFC16EB074642EB7A
:1012F000174216EB0C4642EB1C456A1854F10001EC
:1013000048BF7047B619524141EB0101A3F10103F7
:10131000704795F0000F37D04FEA11424FEA14475B
:1013200021EA024624EA074C02FB07F106FB07F715
:101330000CFB06F402FB0CFC14EB074441EB1741D9
:101340004FEA154714EB0C4441EB1C4125EA074CCE
:1013500002FB07F506FB07F70CFB06F602FB0CFC8D
:1013600016EB074645EB174516EB0C4645EB1C42C2
:10137000121951F1000148BF7047B619524141EBB3
:101380000101A3F1010370474FEA14454FEA1147E9
:1013900024EA054621EA074C05FB07F106FB07F79F
:1013A0000CFB06F24FF0000605FB0CFC12EB0742AB
:1013B00041EB174112EB0C4251EB1C4148BF704707
:1013C000921841EB0101A3F1010370471CB5012103
:1013D000202000F0FBF84FF48070009001208DF881
:1013E000040000208DF8060003208DF8050002207F
:1013F0008DF807006946044800F00BF84FF480713F
:10140000014800F071F81CBD0014024000BFFEE767
:101410007047F0B50A4600210023002400BF3DE0DC
:10142000012505FA01F3156805EA03049C4234D14D
:1014300005684F000326BE40B543056015794E0090
:10144000B5400668354305601579012D02D0157940
:10145000022D16D185684F000326BE40B543856036
:1014600055794E00B540866835438560456801264C
:101470008E40B5434560456896798E40B6B2354397
:101480004560C5684F000326BE40B543C560D579A9
:101490004E00B540C6683543C560491C1029BFD30E
:1014A000F0BDF0B5002300244D07ED0E02FA05F360
:1014B000CE1000F1200555F826504E07F70E0F26E6
:1014C000BE40B543CF1000F1200646F82750CE109D
:1014D00000F1200555F8265045EA0304CE1000F12E
:1014E000200545F82640F0BD4183704701837047D1
:1014F00000BFFEE71CB50121202000F067F84FF483
:10150000C060009001208DF8040000208DF80600D6
:1015100003208DF8050001208DF807006946044876
:10152000FFF777FF4FF4C0610148FFF7DFFF1CBDF5
:101530000014024000BFFEE77047000070B50021B4
:1015400000230F22C4781CB3174C246804F4E06411
:10155000C4F5E064C4F30721C1F10404E3B20A4115
:1015600044789C40E1B28478144021430C07210E5A
:101570000E4C05786155047804F01F050124AC4039
:1015800005786D11AD0005F1E025C5F8004109E0D1
:10159000047804F01F050124AC40054D067876114F
:1015A00045F8264070BD00000CED00E000E400E0CE
:1015B00080E100E002490143024A116070470000E7
:1015C0000000FA050CED00E07047000029B1064A62
:1015D00012680243044B1A6004E0034A1268824313
:1015E000014B1A60704700003038024029B1064AAA
:1015F00012680243044B1A6004E0034A12688243F3
:10160000014B1A60704700004438024029B1064A75
:1016100012680243044B1A6004E0034A12688243D2
:10162000014B1A607047000024380240F0B50021D9
:1016300000220024022500260223324F3F6807F0D3
:101640000C0121B1042905D0082937D105E02E4F1E
:10165000076036E02D4F076033E02A4F3F1F3F6899
:10166000C7F38056274F3F1F3F6807F03F036EB117
:10167000264FB7FBF3F7DFF88CC0ACF1040CDCF8B5
:1016800000C0CCF3881C07FB0CF40CE01E4FB7FB2A
:10169000F3F7DFF870C0ACF1040CDCF800C0CCF359
:1016A000881C07FB0CF4174F3F1F3F68C7F3014727
:1016B0007F1C7D00B4FBF5F7076002E0124F076066
:1016C00000BF00BF0F4F3F6807F0F0010909104F3E
:1016D0007A5C0768D74047600A4F3F6807F4E051DB
:1016E000890A0B4F7A5C4768D7408760054F3F688F
:1016F00007F46041490B064F7A5C4768D740C760E2
:10170000F0BD0000083802400024F40000127A0006
:101710001200002000B587B0012140F2FF10FFF752
:1017200055FF01210803FFF761FF382005900220D3
:101730008DF8180000208DF81A0003208DF819008C
:1017400001208DF81B0005A92A48FFF762FE05223B
:1017500003212848FFF7A5FE052204212548FFF7AD
:10176000A0FE052211462348FFF79BFE4FF44040A0
:10177000059001208DF8180000208DF81A00032034
:101780008DF8190001208DF81B0005A91A48FFF7F4
:1017900040FE01210803FFF739FF00214FF480507C
:1017A000FFF734FF0020ADF800004FF48270ADF871
:1017B00002000020ADF80400ADF80600ADF8080006
:1017C0004FF40070ADF80A003820ADF80C0000208E
:1017D000ADF80E000720ADF810006946074800F08C
:1017E00045F80121054800F027F8FF2000F008F82F
:1017F00007B000BD00040240001802400030014064
:1018000010B5044600BF02210A4800F021F8002864
:10181000F9D02146074800F027F800BF012105480C
:1018200000F016F80028F9D0024800F01AF8C0B20B
:1018300010BD00000030014021B1028842F040029A
:10184000028004E002884FF6BF731A40028070479E
:101850000246002013890B400BB1012000E000205C
:1018600070470146888970478181704710B5002212
:10187000028802F441520B884C8823438C8823430E
:10188000CC8823430C8923434C8923438C892343ED
:10189000CC8923431A430280838B4FF2FF74234089
:1018A00083830B8A038210BD704700000CB50020B3
:1018B000019000903448006840F48030324908605C
:1018C00000BF3148006800F4003000900198401CCF
:1018D0000190009818B90198B0F5A04FF1D12A48AD
:1018E000006800F4003010B10120009001E00020F9
:1018F00000900098012846D123484030006840F00D
:1019000080502149403108602048006840F4404040
:101910001E4908601C48083000681B4908310860EF
:101920000846006840F4004008600846006840F43B
:10193000A05008601648091F0860081F006840F0A2
:101940008070091F086000BF0F48006800F0007039
:101950000028F9D040F205700E4908600A480830A6
:10196000006820F003000849083108600846006854
:1019700040F00200086000BF03480830006800F033
:101980000C000828F8D10CBD00380240007000405F
:1019900008544007003C02402DE9F0472DED088B2C
:1019A00005460E461746B0464FF000099FED270B3F
:1019B000B0EE408AF0EE608A9FED240BB0EE40BAA4
:1019C000F0EE60BA00240CE0285D2E2808D12CB976
:1019D0004FF0FF30BDEC088BBDE8F087A04602E079
:1019E000641CB442F0DB00BF002406E0285D303800
:1019F00009EB890100EB4109641C4445F6DB741EC8
:101A000015E0295DA1F1300000F085FE41EC1A0BD4
:101A100053EC182B00F052FC41EC190B9FED0D0B11
:101A200053EC102B00F08EFE41EC180B641E444565
:101A3000E7DC484600F06FFE41EC190B53EC182B25
:101A400000F03CFCC7E900010020C3E700000000F3
:101A5000000000009A9999999999B93F042808D1F2
:101A60004FF0E021096941F004014FF0E0221161DB
:101A700007E04FF0E021096921F004014FF0E02276
:101A8000116170477047000010B51548006840F4B8
:101A90007000134908601348006840F001001149C4
:101AA000086000200F49083108600E4800680E49A0
:101AB00008400C4908600D48091D0860081F0068AF
:101AC00020F48020091F0860002006490C310860BE
:101AD000FFF7ECFE4FF0006001498039086010BD4F
:101AE00088ED00E000380240FFFFF6FE10300024D1
:101AF00010B540F225511D4800F04AF810B31B48BC
:101B000000F000F9C4B21A48008800F40040C8B9D7
:101B10001748008800F4804060B10A2C03D00020F0
:101B20001349088020E01248008840F40040104922
:101B3000088019E00D2C06D10D48008840F4804043
:101B40000B49088010E00A480088C0F30D000949DD
:101B50000C5407480088401C054908800846008846
:101B6000C72801DD0020088010BD000000100140E2
:101B7000100000202400002021B1828942F400528C
:101B8000828104E082894DF6FF731A40828170479A
:101B900070B50246002400230025002040F66A1696
:101BA000B14200D100BFC1F3421501F01F0301266D
:101BB00006FA03F3012D02D19689334006E0022D87
:101BC00002D1168A334001E0968A33400C12012676
:101BD00006FA04F41688344013B10CB1012000E079
:101BE000002070BDF0B5034600240026002500202B
:101BF00040F66A17B94200D100BF1846C1F342143B
:101C000001F01F06012707FA06F5012C01D10C305F
:101C100004E0022C01D1103000E014301AB1076842
:101C20002F43076002E00768AF430760F0BD000084
:101C30002DE9FF4705460E460024A14600BFA046F9
:101C4000B08900B100BF2C8A24F44054F0880443CA
:101C50002C82AC8941F20C608443B08831890843FE
:101C6000718908430443AC81AC8A24F44074B08980
:101C70000443AC826846FFF7D9FC2048854202D075
:101C80001F48854202D1DDF80C9001E0DDF8089094
:101C9000A88900F4004040B109EBC90000EB09102D
:101CA00031684900B0FBF1F707E009EBC90000EB30
:101CB000091031688900B0FBF1F76420B7FBF0F040
:101CC00004012009642101FB1078A88900F4004078
:101CD00040B1322000EBC800B0FBF1F000F007008B
:101CE000044308E0322000EB08106421B0FBF1F05F
:101CF00000F00F0004432C81BDE8FF870010014075
:101D00000014014001468888C0F30800704700BFF6
:101D1000FEE703B401984100009850EAC12018BFC3
:101D200004204A0D18BF40F0010040F2FF72B2EBF0
:101D3000515F08BF40F00200012808BF052002B033
:101D4000704730380A2801D20120704700207047C0
:101D5000014600BF704710B504462046FFF750FD0E
:101D600010BD10B5FFF7D6FC10BD000070B52DED0D
:101D7000088B0446B0EE408A0025B5EEC08AF1EE2D
:101D800010FA38DBB1EE040AB4EEC08AF1EE10FAB4
:101D900031D89FED1A0A28EE000A10EE101A0846F4
:101DA00000F0B8FE41EC1B0B154890ED000B53EC16
:101DB000102B51EC1B0B00F0C5FC41EC1A0B9FEDF6
:101DC000110B53EC102B00F021FB41EC190B00F030
:101DD00075FC05460021204600F07EF9012000F048
:101DE00059F8284600F012F80121204600F074F955
:101DF000012000F04FF8BDEC088B70BD00FF7F475D
:101E000000000020000000000000144010B504464F
:101E1000C4F30720FFF79FFFE0B2FFF79CFF10BD60
:101E200010B504466FF00400FFF718FEE11704EB4D
:101E30005171C1F3C701074A11701046007800EBD9
:101E40004001C1EBC0104FF6FF7101EAC00002492A
:101E5000088010BD080000200A00002070B504466C
:101E60004FF4077094FBF0F0C6B24FF4077094FB88
:101E7000F0F100FB114085B205E04FF4077000F06F
:101E80002FF8701EC6B2002EF7D115B1284600F00B
:101E900027F870BD0146114A12784A434FF0E023FB
:101EA0005A6100229A611A46126942F001021A61CF
:101EB00000BF4FF0E022106900F001021AB100F4F7
:101EC0008032002AF5D04FF0E022126922F00102A0
:101ED0004FF0E0231A6100229A6170470800002049
:101EE0000146114A12884A434FF0E0235A6100220A
:101EF0009A611A46126942F001021A6100BF4FF05E
:101F0000E022106900F001021AB100F48032002AC8
:101F1000F5D04FF0E022126922F001024FF0E023E9
:101F20001A6100229A6170470A00002000BF054A2A
:101F3000128802F04002002AF9D0C2B2014B9A8006
:101F400070470000001001402DED028B84B000BFEF
:101F50009FED4B0B8DED020B032001904FF4A06021
:101F6000FFF728FBA820FFF75BFF4FF4E13000F0FC
:101F7000BDF8FFF7BFFAFFF729FAFFF7F2FE64207A
:101F8000FFF76CFF9FED400A0020FFF7EFFE9FED8B
:101F90003E0A0120FFF7EAFE71E03C48008800F4A9
:101FA000004000286BD001A902A800F0F5F8002835
:101FB00065D1019818BB9DED020B354880ED000BF3
:101FC0009DED020B53EC102B32A0FEF75FF90120C0
:101FD000384908603220FFF741FF00203649C1F838
:101FE000A0023220FFF73AFF012032490860322078
:101FF000FFF734FF00203049C1F8A0023FE001980C
:1020000001281AD19DED020B51EC100B00F024F9C0
:1020100008EE100AB0EE480A0020FFF7A7FE9FED79
:102020001A0A0120FFF7A2FE00202249091D0860BC
:1020300001202149C1F8A80219E09DED020B51ECE5
:10204000100B00F009F908EE100AB0EE480A012062
:10205000FFF78CFE9FED0C0A0020FFF787FE0120A2
:102060001449091D086000201349C1F8A8029DED1C
:10207000020B53EC102B11A00199FEF707F98CE726
:102080000000000000000000000000001000002020
:1020900000000020C9E8D6C3D0A3D5FDCFB5CAFD46
:1020A0002D2DD0A3D5FDCFB5CAFD3A252E346620FF
:1020B0000D0A0000A082424200804242C9E8D6C315
:1020C000CDA8B5C03A25643BB5E7D1B9D6B53A2518
:1020D0002E3466200D0A000010B9034A116002E098
:1020E000014A121F11607047BC02434210B588B00C
:1020F000044601210846FFF769FA01211020FFF785
:1021000075FA072209212248FFF7CBF907220A2195
:102110001F48FFF7C6F94FF4C060069002208DF803
:102120001C008DF81D0000208DF81E0001208DF888
:102130001F0006A91648FFF76CF902940020ADF8BD
:102140000C00ADF80E00ADF81000ADF814000C2036
:10215000ADF8120002A90F48FFF76AFD01210D48F2
:10216000FFF70AFD012240F225510A48FFF73AFD28
:1021700025208DF8040003208DF805008DF8060059
:1021800001208DF8070001A8FFF7D8F908B010BDAD
:10219000000002400010014070B506460C46214880
:1021A000008800F40040002839D01E4805781E48F9
:1021B000007824282BD11C4840782B2808D1A91E50
:1021C00032461948801CFFF7E7FB0120206023E01E
:1021D000154840782D2808D1A91E32461248801C87
:1021E000FFF7DAFB0220206016E00F4840782F2826
:1021F00008D1A91E32460C48801CFFF7CDFB0020F9
:10220000206009E0002007490880801E70BD002082
:1022100004490880401EF9E7002002490880002098
:10222000F4E70000100000202400002010B5002971
:102230000AD00878002807D005487844FEF7BEFC8D
:10224000002801D0002010BD0248784410BD0000D5
:102250008A0A0000820A000021F00042A2F16052C6
:10226000B2F5801F01F0004328BFD2F17F6C0BD97B
:102270005FEA001C43EAC20242EB507018BF70478D
:1022800028BF20F001007047B2F5801FBCBF184680
:1022900070474FEA410C1CF5001F02D2084600F0BF
:1022A000AFBC70B500F0F8FA00000089FFF7F6BF88
:1022B0004FF00040A0F580007047000010B591EA93
:1022C000030F48BF83F0004300F14283841A71EB8F
:1022D000030C05D2121943EB0C03001B61EB0C013C
:1022E000DFF824E14FEA1154A4EB135C1EEA430F1C
:1022F00018BF9EEA445F73D023EA0E03DCF1200E80
:1023000021EA045143F4801332D322FA0CFE10EB7D
:102310000E0023FA0CFE41EB0E01CCF1200E03FA65
:102320000EFE10EB0E0051F10001B1F5801FCCF153
:10233000200E32D201EB045112FA0EF2BDE8104029
:1023400058BF7047401C38BF5FEA420218BF704751
:10235000002814BF20F0010041F100014FEA4103C1
:1023600013F5001F38BF7047A1F1C04100F0E2BA79
:10237000012A43EB0302ACF1200CDCF11F0E32BF4B
:102380004FF0000E23FA0CF310EB030041EB045165
:10239000B4EB115FD0D0A1EB045101F580114908D5
:1023A0005FEA300001EB04510ED350F1000038BF5A
:1023B00012FA0EFE08D1BDE81040C9E7401C38BF34
:1023C0005FEA4202CAD1C3E7BDE810404FEA4103C9
:1023D00013F5001F38BF7047A1F1C04100F0AABA41
:1023E0009EEA445F08D011EA5E0FBDE8104004BFCA
:1023F00001F0004100207047BDE8104070B500F0CA
:102400004BFA00BF64FBBE3E0000E0FF2DE9C04177
:1024100030B4DFF8A0C23CEA111418BF3CEA131430
:1024200000F0EC8081EA03051CEA111444EAD5743B
:1024300018BF1CEA131500F0C780A4EB05044FF089
:10244000004545EAC12145EAC32341EA505143EA28
:10245000525304F17F74994204F500344FEAC020CE
:102460004FEAC22208BF904200F09C804FEA1365F9
:102470000FF24016765D4FEA134506FB05F7C7F1EC
:10248000807706FB07F74FEAD737A7FB036876424A
:10249000C8F58038A7FB06CE38BFA8F1010807FBB6
:1024A00008E64FF0000EA6FB028CE6FB03CEDCF143
:1024B000000CCEF1004E38BFAEF1010EA6FB0C5859
:1024C0004FF000074FF00005E6FB0E87A1FB08C6A2
:1024D000A0FB07CE16EB0E0645F10005E1FB0765F4
:1024E00015F1E04E7EBFA4F580345FEA46066D41EB
:1024F00016F1800745F100054FEA17274FEA0666F7
:1025000047EA0567A6F1DE46B6F1805F4FEA15257A
:102510001FD9384624F0010C05EBC471BCF1FE6FE5
:1025200001EB0C1102D8F0BCBDE8008124425CBF75
:1025300001F5801E9EEAC47F02D4F0BCBDE8008194
:10254000244238D4F0BCA1F1C041BDE8004100F004
:10255000F1B94FEAD22242EA43524FEAD323A7FB12
:1025600002864FEAD02040EA415007FB03661EEA8C
:102570000E0F4FEAD12105FB026658BFA6EB0056AD
:10258000B6EB00564FEA520E4EEAC37E18EB0E0E23
:1025900056EB530EBDD518EB02085E417F1C55F17A
:1025A0000005B6E74FF480154FF000074FF0000626
:1025B0004FF00008ADE7F0BC4FF0000001F1C04162
:1025C00001F00041BDE8008111EA0C1F0CEA13156F
:1025D00000D00CE013EA0C1F00F025804FF0000043
:1025E000F0BC81EA030101F00041BDE80081F0BCCC
:1025F000BDE8004181EA030100F09CB9F0BCBDE8F0
:10260000004170B500F048F9097EFC3E00F007B8C3
:1026100081EA03014FF0000001F00041704781EAB8
:10262000030100F087B9F0BCBDE800414FF00000A5
:1026300021497047FFFDFBF9F7F5F4F2F0EEEDEB01
:10264000E9E8E6E4E3E1E0DEDDDBDAD8D7D5D4D3B0
:10265000D1D0CFCDCCCBCAC8C7C6C5C4C2C1C0BFFC
:10266000BEBDBCBBBAB9B8B7B6B5B4B3B2B1B0AF02
:10267000AEADACABAAA9A8A8A7A6A5A4A3A3A2A1E6
:10268000A09F9F9E9D9C9C9B9A99999897979695A1
:1026900095949393929191908F8F8E8E8D8C8C8B3D
:1026A0008B8A8989888887878685858484838382C5
:1026B000828181800000FF070000F87F4FEA1153FC
:1026C000A3F58063D3F11E03A8BFD3F1200C08DB70
:1026D0004FF0004242EAC12252EA505232FA03F06D
:1026E000704709420BD4102BC4BF0020704703F57C
:1026F000787CBCF1FF3F05D04FF0FF3070474FF0C2
:102700000000704770B500F0C7F800BF4992248000
:1027100000207047F0E710F0004248BF4042B0FA96
:1027200080F310FA03F10AD0C3F11D0303F58063AF
:102730004FEA415002EB035202EBD12170474FF0B8
:1027400000007047DFF848C170B51CEA111E1EBFBB
:102750001CEA13159EEA0C0F95EA0C0F00F06F802F
:1027600081EA030423EA4C134EEAD47E21EA4C1199
:1027700041F4801143F48013AE44A1FB024CA0FB52
:102780000365AEF17F7E361955EB0C05A1FB034CBA
:102790004CF10003A0FB021C16EB0C06654153F143
:1027A0000003094218BF46F0010613F4007F0BD165
:1027B0004FEA03314FEA0530340341EA155140EA4C
:1027C00016506FF003020AE04FEAC3214FEAC5201A
:1027D000F40241EA555140EA56506FF0020202EB12
:1027E0002E4201EB025585EACE710AD05FEA440C15
:1027F00018BF24F0004450F1000041F1000120EA2C
:10280000D47040F2FE7C624500D270BDA84214BF75
:102810004FF080444FF04044002E08BF0024BEF12A
:10282000806FA8BFA1F1C041BDE8704080F28280F6
:102830004FF0000001F1C04101F0004170479EEAF5
:102840000C0F0CEA131518BF95EA0C0F06D04FF0C9
:10285000000081EA030E0EF0004170BD00F01CF88C
:102860008900013E00F007B800F009B84FEA430CB8
:102870005FEA5C5C08D081EA030100F05BB84FEAD4
:10288000410C5FEA5C5CF6D14FF0000001497047F3
:102890000000FF070000F87F0EF1020E2EF0030E7D
:1028A0005EF8046B364205D4012A43EB030515F5A7
:1028B000001F12D8012841EB010C1CF5001F0CD899
:1028C0000ED14FEAD17C15F5001F0CEB4C0C0CF12E
:1028D000020C08BF4CEBD37C04E04FF0080C01E085
:1028E0004FEAD37C0CEB4C0526FA05F606F00706FA
:1028F000B6F1040C06D20EEB860CBDE870404CF02D
:10290000010C6047DFE80CF0090B02024FF00041B8
:102910004FF00000A1F5002170BD194610460128B6
:1029200051EB010418BFD4F5001484BF002001F05E
:10293000004170BD0808A0F500114FEA3101704751
:1029400010B591EA030F48BF83F000433FF5BEACDA
:10295000841A71EB030C07D212198CF0004C43EB74
:102960000C03001B61EB0C01DFF8A4E14FEA1154EA
:10297000A4EB135C1EEA430F18BF9EEA445F00F00D
:10298000B08023EA6E03524221EA0451C3EB6E0386
:1029900038BF5B1EDCF1200E25D322FA0CFE10EBB3
:1029A0000E0043FA0CFE41EB0E01CCF1200E03FAAF
:1029B0000EFE10EB0E0051F10001CCF1200E29D4D7
:1029C00012FA0EF201EB0451BDE8104058BF7047F7
:1029D000401C1CBFB2F1004F704700280CBF491CBF
:1029E00020F00100704712EB020E43EB030218BF08
:1029F0004FF0010E4EEA4202ACF1200CDCF11E0E4B
:102A000054D943FA0CFE10EB0E0051F1FF31CCF11A
:102A10001E0ED5D50EF1010E12FA0EFE404141EB0D
:102A2000010101EB445C5FEA5C5C10D910EBDE70E5
:102A300001EB045138BFBEF1004FBDE8104018BF94
:102A4000704700280CBF491C20F00100704730D2AD
:102A50004FEAD42C11F5001124F400641BD0B1FA14
:102A600081F20B3AA41AA41ED2F12003914030FA4D
:102A700003F31943904001EBCC71002C01EB04519E
:102A8000BDE81040A8BF704701F1C0414FF0000001
:102A900001F000417047B0FA80F310FA03F100D161
:102AA00010BDE41A173C4805C90AE4E701EB0451DC
:102AB00010BD491001EB0451BDE810404FEA300051
:102AC00002E04FF0000170474A0008BF0042F8D012
:102AD000B2F5001F28BF704701F000414FF0000021
:102AE00070479EEA445F07D011EA5E0FBDE81040D0
:102AF00004BF002100207047BDE8104070B5FFF70B
:102B0000CBFE00BF40DFF63E83F000411046704729
:102B10000000E0FF43004FEAD30C4FEA3C0C434077
:102B20001FBF40070CF1605113F0FE4F70471CF0BF
:102B3000006F03D100200CF0004170470CF00043FF
:102B400043EA507010B540EACC0000F00EF800BF28
:102B5000000000924FEA0001FFF7ECBE4FF0004189
:102B60004FF00000A1F5002170470EF1020E2EF08B
:102B7000030E5EF8044B244204D44FEA4102B2F142
:102B80007F4F11D84FEA4003B3F17F4F0CD80ED1DD
:102B90004FEAD07CB2F17F4F0CEB4C0C0CF1020CE5
:102BA00008BF4CEBD17C04E04FF0080C01E04FEA89
:102BB000D17C0CEB4C0324FA03F404F00704B4F1C9
:102BC000040C06D20EEB840CBDE810404CF0010C56
:102BD0006047DFE80CF0070802024FF00040A0F564
:102BE000800010BD0846420018BFD2F1807288BF35
:102BF00000F0004010BD4FF04070E1EE100A704749
:102C0000FF2141EAD050C0057047FDF744BD0000E8
:102C100002400000000000A000000000054000008D
:102C2000000000C8000000000C4000000000409CB4
:102C300000000000194000000020BCBE00000000A1
:102C400034400000BFC91B8E00000004B5400000E6
:102C5000504BCFD06607E2CF010000006C4100006E
:102C60003E8251AADFEEA73401000000D9420000E5
:102C7000DCB5A0E23A301F97FFFFFFFFB44500002C
:102C8000FD25A0C8E9A3C14FFFFFFFFFFF3F0000E4
:102C90000000008000000000FF3F000000000080F6
:102CA00000000000E02C00080000002024000000CC
:102CB000C4010008042D0008240000202C07000097
:102CC000E00100081C00000043000000F8FFFFFFC7
:102CD0000C0000000E0000000F0000002E0000009D
:102CE0000000004085CEF03F000000000000000022
:102CF00000000000000001020304010203040607B3
:042D000008090000BE
:040000050800018965
:00000001FF
